:040000000128FE2BAA
:10040800701C162A7208C0392C0091007308F50078
:100418007208F400750DF50CF40C750DF50CF40C60
:1004280074089200F01C282A7208C0392C009A001F
:100438007308F5007208F400750DF50CF40C750DD1
:10044800F50CF40C74089B00701D08007208C03984
:100458002C0097007308F5007208F400750DF50C70
:10046800F40C750DF50CF40C74089800080078303D
:10047800210099041908FC3902389900C03023007A
:100488008C0521001D102200981321000C108C10DF
:100498000C118C110C128C120C150C168C16FF30CA
:1004A80020009B009110FC309C051C1521000C11AC
:1004B8000C128C12C0302C009300C0309900C03050
:1004C8009C002000B701B801A801A9010330B500BC
:1004D8000030B6000130B3000030B400AA01AA0A07
:1004E8002A08FA00FB017A08B3007B08B400B701B8
:1004F800B8013408F1003308F0003808F300370871
:10050800F20004222000AB01AC012C08803AFA006A
:10051800A0307A02031D922A00302B020318A52A64
:10052800000001302000AB070030AC3D2C08803AB9
:10053800FA00A0307A02031DA32A00302B02031C04
:10054800942A2000B701B801E830200037060330AC
:10055800031938060319E02A0130B3000030B4004B
:100568000130B7070030B83D3408F1003308F00017
:100578003808F3003708F20004222000A001A10186
:100588003608FB003508FA000930FA35FB0D890BEF
:10059800C92A2108803AFC007B08803A7C02031DA6
:1005A800D72A7A0820020318A82A00000130200060
:1005B800A0070030A13DC42AAD01AE012E08803A43
:1005C800FA00A0307A02031DEB2A00302D0203182E
:1005D800FE2A000001302000AD070030AE3D2E0895
:1005E800803AFA00A0307A02031DFC2A00302D025E
:1005F800031CED2A2000B701B801E830A800033039
:10060800A900E8302000370603300319380603191B
:10061800472B0130B7070030B83DFF30A807FF303F
:10062800A93D0430F0000030F1003808F300370825
:10063800F20004220130F0000030F1002000290807
:10064800F3002808F20004222000A201A3013608C2
:10065800FB003508FA000930FA35FB0D890B302B01
:100668002308803AFC007B08803A7C02031D3E2B5D
:100678007A0822020318052B000001302000A20787
:100688000030A33D2B2BAF01B0013008803AFA00AF
:10069800A0307A02031D522B00302F020318652B5D
:1006A800000001302000AF070030B03D3008803A2C
:1006B800FA00A0307A02031D632B00302F02031CBE
:1006C800542B2000B701B801E8302000370603306A
:1006D800031938060319A02B0130B3000030B40009
:1006E8000130B7070030B83D3408F1003308F00096
:1006F8003808F3003708F20004222000A401A501FD
:100708003608FB003508FA000930FA35FB0D890B6D
:10071800892B2508803AFC007B08803A7C02031D5F
:10072800972B7A0824020318682B00000130200058
:10073800A4070030A53D842BB101B2013208803AEC
:10074800FA00A0307A02031DAB2B003031020318E7
:10075800BE2B000001302000B1070030B23D320846
:10076800803AFA00A0307A02031DBC2B0030310217
:10077800031CAD2BE8302000B7000330B800200080
:10078800370838040319722AFF30B707FF30B83D1D
:100798000130F0000030F1003808F3003708F200AB
:1007A80004220430F0000030F10020003808F30083
:1007B8003708F20004222000A601A7013608FB0032
:1007C8003508FA000930FA35FB0D890BE72B2708A5
:1007D800803AFC007B08803A7C02031DF52B7A08DE
:1007E80026020318C32B000001302000A6070030A2
:0807F800A73DE22B20003B2A83
:020000040001F9
:04000E0084FFFFF17B
:00000001FF
